:020000040800F2
:1000000010070020790200087D5E00087B1D0008B3
:10001000795E00089D1A0008876100080000000052
:10002000000000000000000000000000F95E000871
:10003000A11A0008000000007F5E00080D600008A3
:10004000930200089302000893020008930200083C
:10005000930200089302000893020008930200082C
:10006000930200089302000893020008930200081C
:10007000930200089302000893020008930200080C
:1000800093020008930200089302000893020008FC
:1000900093020008930200089302000893020008EC
:1000A00093020008930200089302000893020008DC
:1000B00093020008716000088D6000089302000838
:1000C00093020008930200089302000893020008BC
:1000D00093020008D560000893020008930200080C
:1000E000930200089302000893020008930200089C
:1000F000930200089302000893020008930200088C
:10010000930200089302000893020008930200087B
:10011000930200089302000893020008930200086B
:10012000930200089302000893020008930200085B
:1001300000F002F800F090F80AA090E8000C824469
:100140008344AAF10107DA4501D100F085F8AFF246
:10015000090EBAE80F0013F0010F18BFFB1A43F0A5
:10016000010318470CA400002CA40000103A24BF7F
:1001700078C878C1FAD8520724BF30C830C144BF0C
:1001800004680C607047000000230024002500264E
:10019000103A28BF78C1FBD8520728BF30C148BFEA
:1001A0000B6070476E2900F03B81702900F07D8262
:1001B000662906F06E86652906F06B86672906F0CB
:1001C00068866129AFF3008003681B0A28BF41F0ED
:1001D0008001692900F0E880642900F0E580752934
:1001E00000F0E2806F2900F00B82782900F049824C
:1001F000E92900F0A581E42900F0A281F52900F0A9
:100200009F81EF2900F00882F82900F048820368F6
:10021000DB0928BF41F08001632900F0CA857329FA
:1002200000F0CF85E32900F0DA85F32900F0DF85BF
:10023000002070471FB500F02BFE040000200021B5
:1002400006F00CFB401C60600020002106F0F0FA74
:10025000E0601FBD10B510BD00F0EDFD1146FFF7C9
:10026000E9FF06F09BF800F0C5FE03B4FFF7F2FFCC
:1002700003BC00F009FF0000094880470948004717
:10028000FEE7FEE7FEE7FEE7FEE7FEE7FEE7FEE746
:10029000FEE7FEE704480549054A064B70470000A3
:1002A0001160000831010008100100201007002033
:1002B00010030020100300201CB50C46064B7B44A5
:1002C00069460090204600F0C4F8044600206946C4
:1002D00000F0D2F820461CBDB701000070477047FF
:1002E000704770B5044685690068C10601D530269F
:1002F00000E02026C00707D070BDD4E901213046B8
:100300009047206A401C20626D1EF6D570BD70B506
:10031000044685690078C00707D170BDD4E9012182
:1003200020209047206A401C20626D1EF6D570BDCB
:1003300009684A0501D540B27047C905FCD500B22D
:10034000704709684A0501D5C0B27047C905FCD598
:1003500080B2704770B50C460546012A05D0287852
:10036000800600D5EA69002302E0012305E05B1C5A
:10037000934202D2E05C0028F9D1A869E618C01ABD
:10038000A861286A184428622846FFF7AAFF04E0FB
:10039000D5E9012114F8010B9047B442F8D328465F
:1003A000FFF7B5FF70BD00002DE9F04106460024BF
:1003B00010687529314616A510D0FFF7B9FF00283F
:1003C00002DA404213A507E031688A0701D512A579
:1003D00002E0490704D511A5012401E0FFF7B1FFB0
:1003E00000210A2206F1240709E0B0FBF2FCB0FB71
:1003F000F2F302FB1C00303078541846491C0028E8
:10040000F3D123462A463046BDE8F04100F061BAF8
:10041000000000002D0000002B0000002000000064
:1004200011680268006A530501D508700AE0D30517
:1004300001D5088006E0130603D5C217C1E9000202
:1004400000E008600120704701694A1C02610878D9
:10045000704700B58FB0CDE9013100210591054904
:100460007944CDE903101146684600F029F90FB030
:1004700000BD0000E5FFFFFF0A6802F8010B0A60FB
:10048000704700002DE9FF5F15468A460446DFF8F5
:10049000AC80F8440027D8E900103E46CDE90010B2
:1004A00010E03AF816106A4602A800F0A4FC411CBD
:1004B00007D02178890603D5E269391891420DD811
:1004C0000744761C2078800602D5E069B84205DD35
:1004D000AE42E6DB3AF816000028E2D1A069C01B64
:1004E000A0612046FFF7FDFED8E90010CDE900101D
:1004F000002017E03AF818106A4602A800F07BFCCA
:10050000B0F1FF3F81460BD000250DF1080B05E04F
:10051000D4E901211BF8050090476D1C4D45F7D328
:1005200008F10100B0428046E4DB206A38442062D2
:100530002046FFF7ECFEBDE8FF9F000002A0000090
:100540002DE9F0418046D21D22F007020025D2E9B4
:100550000002F52915A614D0011E72F1000106DA79
:100560000023D0EB030063EB020211A608E0D8F8E9
:1005700000108B0701D50FA602E0490701D50EA692
:1005800001251146002408F1240704E000F05CF97D
:1005900030323A55641C50EA0102F7D12B463246FC
:1005A00021464046BDE8F04100F093B9000000004C
:1005B0002D0000002B0000002000000030B40021BE
:1005C00000F1240408E002F00705D208303542EAC1
:1005D0004372DB086554491C52EA0305F3D10468F1
:1005E000002310A2250708D504F020040C4304D0F2
:1005F000C46901230CA2641EC46130BC00F069B957
:1006000010B5044621461068FFF79BFE02462046BF
:10061000BDE810400023D1E7D21D22F00701D1E947
:100620000023CBE70000000030000000F0B40D46CE
:100630000188090502D5214C7C4402E01F4C7C4412
:100640000E34002100F1240608E002F00F07120921
:10065000E75D42EA03721B097754491C52EA03071B
:10066000F3D102780023120704D5702D06D009B10A
:10067000022311342246F0BC00F02BB901231034C0
:10068000F8E770B504460D4621461068FFF759FE9D
:10069000024629462046BDE870400023C6E7D21D29
:1006A00022F00703D3E90023C0E70368126843F090
:1006B000200303600823C3610023B7E7649E0000A2
:1006C0002DE9F05F894604464FF0000ADFF874B167
:1006D000FB44C0F820A02046E1688847002874D079
:1006E000252806D0D4E901219047206A401C2062C9
:1006F000F1E700265F462046E16888472028054646
:1007000007DB312D05D2781910F8200C08B106430B
:10071000F1E7B00701D526F00406C4F81CA00027B5
:10072000C4F818A02A2D09D0284605F042FD38B398
:1007300004EB8708303DC8F8185019E059F8041B3D
:10074000204604EB87029161E1688847012F054646
:1007500018D1E069002820DA26F020061DE0D8F83C
:10076000180000EB800005EB40003038C8F8180096
:100770002046E1688847054605F01BFD0028EED1BC
:10078000012F0AD02E2D08D12046E16888477F1C12
:100790000546022F46F02006C4DBA069002803DAD4
:1007A000404246F00106A061F00701D026F0100695
:1007B0006C2D0BD0682D09D04C2D39D06A2D35D039
:1007C000742D35D07A2D33D016E038E0E1682F460D
:1007D00020468847B842054609D16C2F26D04FF4F1
:1007E0008060E168064320468847054604E06C2F98
:1007F0001AD04FF4807006430DB3A5F141001928BB
:1008000002D8203546F400664A462946204626602E
:100810004E46FFF7C7FC80B101280BD0F61D26F02D
:10082000070000F1080956E74020E4E78020D8E7F8
:100830000020D6E706F104094DE7284652E7206A72
:10084000BDE8F09FF49D000030B5B0F10A024FEA18
:10085000900E71F100034EEA817EB0EB0E0061EB69
:1008600091014FEA101E4EEA017E10EB0E0041EBA3
:1008700011114FEA102E4EEA016E10EB0E0041EB03
:1008800011214FEA104E4EEA014E10EB0E0041EBE3
:100890001141401841F100014FEAD00040EA417097
:1008A0004FEAD10110EB80054FEA810444EA9074CD
:1008B00044EB01046D1944EB0404521BA3414FF0B7
:1008C000000348BF0A3200D530BD401C41F1000191
:1008D00030BD2DE9F0470D4699469246044600F199
:1008E00024080168880604D5E06921F01001216020
:1008F00000E00120A84201DD471B00E00027A169BC
:100900007A1902EB0900081AA0612078C00602D407
:100910002046FFF7E6FC002608E0D4E901211AF89A
:1009200006009047206A401C761C20624E45F4DB8E
:100930002078C0060AD52046FFF7D3FC06E0D4E9AC
:10094000012130209047206A401C2062381EA7F108
:100950000107F4DC07E0D4E9012118F8050090470D
:10096000206A401C2062281EA5F10105F3DC204608
:10097000FFF7CDFC2078000602D50220BDE8F08705
:100980000120FBE770472DE9FF4F0C461E464FF054
:10099000FF378BB0D2E90001DDF860800A908A460B
:1009A000C1F30A5505B93D46002108464FF0000045
:1009B000BAF1000F00F4400005DA00EB80004FF4BC
:1009C000400101EA50004FEA9059B9F1010F00DDF2
:1009D000B9460A9850EA4A000ED044F61050A5F2E3
:1009E000FF3545432F14B8F1000F1ED07542291E64
:1009F0001EDDC9F100021CE0B8F1010F4FF000004C
:100A000001D0302103E0F24305E02154401CB04204
:100A1000FBDB30460022002121540B99C1F80880ED
:100A2000C1E900200FB0BDE8F08FBD1B6D1CDEE7F3
:100A30004A4600DA694206A800F06EFA06AB93E86F
:100A4000070003AB83E8070050460A9900F023FB38
:100A50008DE80700A0F500501F3800900398002D86
:100A600009DD42F21F014A46084403A90390684683
:100A700000F082FD08E0A0F500504A461F3803A9A7
:100A80000390684600F08CFD8DE807000004000C20
:100A900003D04FF0FF30410800E01046B8F1000FDE
:100AA00003D00022009215461EE0751E05D4FFF704
:100AB000CBFE303262556D1EF9D5B3460122084394
:100AC00002D000227F1C04E02078302801D10022CF
:100AD0007F1E002A099786D01DE0112D07DAFFF747
:100AE000B3FE303262556D1C50EA0102F5D1084365
:100AF00002D00098C8B10EE00021681E05E0235C1A
:100B0000625C63542254401E491C8142F7DBAB46B1
:100B1000A81B401E0990002004F80B000B98099AAE
:100B2000C0F80880C0E9002B7CE711264FF00008D0
:100B300059E72DE9F04F88460446D21D22F00701FF
:100B400091B0D1E90001CDE90A0105F01EFB024692
:100B50000B98C00F01D02D2007E02068810701D538
:100B60002B2002E0202101EAC000032A099001D0D5
:100B7000072A05DB03464146204600F08DF90BE1CC
:100B80002078800601D5E06900E00620B8F1650F05
:100B9000814606D0B8F1660F18D0B8F1670F70D152
:100BA00031E00020B9F1110F009001DB112301E0C9
:100BB00009F101030AAA01A90CA8FFF7E4FEDDE987
:100BC0000C70002609F10105834647E001204B46E1
:100BD00000904FF000470AAA01A90CA8FFF7D3FE26
:100BE000DDE90DB00C995D46002610B909F1010050
:100BF0000D18B9EB050003D4C0F1FF3609F101056A
:100C0000A5EB09002BE0B9F1010F01DA4FF0010962
:100C10000020B9F1110F0090484601DD112300E0DA
:100C200003460AAA01A90CA8FFF7ADFEDDE90C7086
:100C30004D4600268346207800070AD4AB4500DAEB
:100C40005D4601A8012D04DD411911F8011C302970
:100C500007D04F4502DA17F1040F04DA012082466B
:100C60000FE06D1EEEE7002F02DCED1B3E4403E0BB
:100C7000781CA84200DD7D1CB81B00F1010A4FF072
:100C800000472078000703D4AA4501DB4FF0FF3A64
:100C90000021B7F1004F0DF143088DF8431024D027
:100CA00002202B23002F01DA7F422D230A21021E6E
:100CB000A0F1010000DC5FB197FBF1FC97FBF1F2C2
:100CC00001FB1C7C17460CF1300C08F801CDEEE757
:100CD000A8F1010003702188090501D5452100E034
:100CE0006521A0F1010800F8011C09980FA9A1EBEA
:100CF0000807FF1D00B10120411901EBEA70A1694D
:100D00003844081A401EA0612078C00602D420464C
:100D1000FFF7E7FA099828B1D4E901219047206A42
:100D2000401C20622078C00622D52046FFF7D9FA61
:100D30001EE0002E04DBB34502DD01A8805D00E06B
:100D40003020D4E901219047206A401C2062761CA3
:100D5000AAF101005FEA000A0AD100F099F8C06820
:100D60000168405CD4E901219047206A401C206260
:100D7000281EA5F10105DCDC07E0D4E9012118F803
:100D8000010B9047206A401C2062381EA7F1010722
:100D9000F3DC2046FFF7BBFA032011B043E610B5A1
:100DA000436913B1AFF3008001E0FFF7D3FA0120EC
:100DB00010BD127800F124010A7000224A7001224D
:100DC000EDE711684FF0FF32E9E710B5436913B161
:100DD000AFF3008001E0FFF755FB012010BD128842
:100DE00000F1240182840022C2840122EDE711680F
:100DF0004FF0FF32E9E770B516460C46054600F0A5
:100E00003FF8036893F80101012806D0FF2C0FD8A2
:100E1000185D68B101202C7070BDD3F8070132460F
:100E2000214603F2071303442846BDE870401847E3
:100E30004FF0FF3070BD754600F0E2F8AE46050099
:100E40006946534620F00700854618B020B5FFF7E5
:100E500021FABDE820404FF000064FF000074FF0A8
:100E600000084FF0000B21F00701AC46ACE8C009C8
:100E7000ACE8C009ACE8C009ACE8C0098D467047D1
:100E800010B500F005F8001D10BD00BFD1590000DD
:100E900000487047D00000202DE9F0411F4604466D
:100EA00003260168072A01F4006004DB08B116A5D7
:100EB00005E016A503E008B115A500E015A521F091
:100EC00010002060A069C01EA0610FB1401EA0618B
:100ED0002046FFF706FA4FB1D4E901213846904782
:100EE000206A401C2062C01C206206E0206AFAE7EB
:100EF000D4E9012115F8010B9047761EF8D220465F
:100F0000FFF705FABDE8F0814E414E006E616E00BC
:100F1000494E4600696E66002DE9F0478146164647
:100F20008AB0334878440DC88DE80D0030487844C5
:100F3000801C03AC0DC884E80D0041F69B300844CA
:100F4000372190FBF1F290FBF1F5A5F1800501FB53
:100F500012041B3C02D56442012000E00020DFF8AF
:100F600090A080460027FA44AAF1BE0A0DE0E007EF
:100F700009D03246684607EB47010AEB810100F0D1
:100F80000FFB8DE8070064107F1C002CEFD1184F79
:100F90007F44AC3F18E0E80714D007EB04100DF1D4
:100FA000180A90E80E008AE80E00C068F04201D1ED
:100FB00098190890324606A903A800F0F1FA03AB8D
:100FC00083E807006D10641C002DE4D132466946A9
:100FD000B8F1000F03A802D000F0CEFA01E000F053
:100FE000DFFAC9E90001C9F808200AB0BDE8F087B6
:100FF000309600000446AFF300802046FFF735F935
:1010000000487047B00000204FF0013C50F8042B1E
:1010100051F8043B9A4221D1A2EB0C03934313EA0B
:10102000CC1317D150F8042B51F8043B9A4215D138
:10103000A2EB0C03934313EACC130BD150F8042B0F
:1010400051F8043B9A4209D1A2EB0C03934313EAF3
:10105000CC13DBD04FF00000704700BFD01A01BAAC
:10106000B1FA81F101F0180122FA01F0CB40C1F18F
:101070002001DBB2C0B2C01A2CFA01F3D11A91439D
:1010800011EAC311E6D1704701491820ABBEFEE753
:101090002600020070475FEA400C08BF91F0000F85
:1010A0004FEA8C234FEAC12243EA51514FEA1C50C8
:1010B00018BF00F5F0404FEA300018BF41F0004182
:1010C0005FEA6C5C00F02980BCF1FF3F08BF40F094
:1010D00080407047130C06BF12044FF0100C4FF005
:1010E000000C130E04BF12020CF1080C130F04BF06
:1010F00012010CF1040C930F04BF92000CF1020CCE
:10110000D30F04BF52000CF1010C11464FF0000246
:10111000A0F11F00A0EB0C00704711F0004F08BFBA
:10112000704731F000413FF4D5AF0B0C06BF090406
:101130004FF0100C4FF0000C0B0E04BF09020CF125
:10114000080C0B0F04BF09010CF1040C8B0F04BF3A
:1011500089000CF1020CCB0F04BF49000CF1010C0B
:10116000CCF12003A0EB0C0022FA03F302FA0CF2FC
:1011700041EA030100F10100704720F07F4C80EA52
:10118000030023F07F47ACEB070303F57C5300F02B
:10119000004003F1FF032DE980494FEA154B09B4E4
:1011A0004FEA144325EA0B4E24EA03480FF20426C3
:1011B00006EB132749083E785FEA320203FB066715
:1011C000C7F5000707FB06F64FEA54374FEAD64645
:1011D00006F1020607FB066CCCF1005C4FEA1C47E7
:1011E0002CEA074C07FB06F40CFB06F504EB15464E
:1011F0004FEA961634BF00204FF000404FEAD13737
:1012000006FB07FC4FEA1C4C0CFB0BF7D21B03FB45
:101210000CF761EB07010CFB0EF7B0EB074072EB2C
:1012200017420CFB08F734BFA2EB0742B2EB0742B0
:1012300061EB17414FEA0C444FEA910706FB07FCAC
:101240004FEA1C4C0CFB0BF7B0EBC74072EB57326C
:1012500003FB0CF734BFA2EBC742B2EBC74261EB12
:1012600057310CFB0EF7B0EBC70072EB57720CFB5B
:1012700008F734BFA2EBC702B2EBC70261EB5771AC
:10128000039F4FEA816141EA921104EBCC044FEADB
:10129000D1374FEA826206FB07FC42EA90124FEA1E
:1012A00080604FEA1C4C0CFB0BF7D21B03FB0CF7C6
:1012B00061EB07010CFB0EF7B0EB074072EB174236
:1012C0000CFB08F734BFA2EB0742B2EB074261EB1D
:1012D00017414FEA8C554FEA910704EB9C2406FB1B
:1012E00007FC4FEA1C4C0CFB0BF7B0EBC74072EB52
:1012F000573203FB0CF734BFA2EBC742B2EBC74235
:1013000061EB57310CFB0EF7B0EBC70072EB577275
:101310000CFB08F734BFA2EBC702B2EBC70261EBCC
:10132000577115EB4C254FEA816141EA92114FEA62
:1013300082624FEAD13742EA901206FB07FC44F181
:1013400000044FEA80604FEA1C4C0CFB0BF7D21BE9
:1013500003FB0CF761EB07010CFB0EF7B0EB07404A
:1013600072EB17420CFB08F734BFA2EB0742B2EB5B
:10137000074261EB174115EB1C154FEA813141EA39
:1013800092414FEA823242EA90424FEA80304FEA7D
:101390000C7644F1000448EA03434EEA0B484FF050
:1013A000000EB2EB080C71EB030724BF624639460E
:1013B0004EEB0E0E4FF0000B0018524149414BEB23
:1013C0000B0BB2EB080C71EB03077BF1000B24BF96
:1013D000624639464EEB0E0E4FF0000B001852419C
:1013E00049414BEB0B0BB2EB080C71EB03077BF1A4
:1013F000000B24BF624639464EEB0E0E51EA02073F
:1014000018BF46F0010616EB0E7655F1000254F1B6
:10141000000103D5BDE88901BDE80088BDE8890168
:10142000BDE80048B619524141EB0101A3F10103A7
:10143000704780807F7E7D7C7B7A79787776767541
:101440007473727171706F6E6E6D6C6C6B6A6A69B9
:101450006868676666656464636362616160605F53
:101460005F5E5E5D5D5C5C5B5B5A5A5959585857CC
:101470005756565555555454535352525251515034
:1014800050504F4F4F4E4E4D4D4D4C4C4C4B4B4B87
:101490004A4A4A49494948484847474747464646CD
:1014A0004545454444444443434343424242424108
:1014B0004141002B26D4770021D01CB54FEA3707D5
:1014C00003B44FF010004FF010014FF000000FBCBC
:1014D000BDE810400BF1010BBBF1010F08BF5FEA43
:1014E000170722BF12F1010211F101014FF0004173
:1014F00043F1000300F0004043EA00007047F9D3D5
:101500005708DAE746EA064613F1400F4FEA164657
:101510001FDD13F1200FDFBF16430A4600212033E1
:101520005B42C8D0C3F1200746EA064602FA07F735
:101530004FEA164646EA0706C3F1200722FA03F2ED
:1015400001FA07F721FA03F14FF0000342EA07021C
:10155000B1E746EA020646EA06464FEA164646EA7A
:101560000106BCBF46EA0646360C4FF000034FF0BA
:1015700000024FF000019EE72DE9C048934630B4C9
:1015800091E8380007C831EA400C48BF34EA430C00
:1015900003D5FFF7F2FDFFF78CFFF0BCBDE8008834
:1015A0002DE9C048934630B491E8380007C810F0E0
:1015B000804F08BF13F0804F03D100F005F8FFF70C
:1015C00078FFF0BCBDE8008820F07F4780EA030088
:1015D00023F07F4C07EB0C03A3F57C5300F0004095
:1015E000A3F1FE0392F0000F00F0B38095F0000F1E
:1015F00000F077802DE901494FEA11404FEA144687
:1016000021EA004800FB06FC24EA064708FB06F630
:1016100007FB08F800FB07F718EB06484CEB164CE5
:101620004FEA124B18EB07484FEA15464CEB1740B0
:1016300022EA0B4E0BFB06FC25EA06470EFB06F6DC
:1016400007FB0EFE0BFB07F71EEB064E4CEB164C92
:101650004FF000061EEB074E4CEB174B18EB0B0838
:1016600040F1000018EB0E0B58EB000840F10000B1
:101670008F1A4FF000013CBFC943661B14BFB5EB86
:10168000040C00213CBFC943F61B4FEA17444EEA45
:101690008E0E27EA04454FEA1C4704FB07622CEA3A
:1016A000074C05FB07F70CFB05F604FB0CFC16EBDF
:1016B000074642EB174216EB0C4642EB1C421BEB73
:1016C000060658EB0202414146EA9E0601D5BDE8F6
:1016D0000189B619524141EB0101A3F10103BDE8B3
:1016E00001894FEA14454FEA114724EA054621EAE9
:1016F000074C05FB07F406FB07F70CFB06F105FB9F
:101700000CFC11EB074144EB17444FEA124711EB75
:101710000C4144EB1C4422EA074C05FB07F206FB94
:1017200007F70CFB06F605FB0CFC16EB074642EB35
:10173000174216EB0C4642EB1C456A1854F10001A7
:1017400048BF7047B619524141EB0101A3F10103B3
:10175000704795F0000F37D04FEA11424FEA144717
:1017600021EA024624EA074C02FB07F106FB07F7D1
:101770000CFB06F402FB0CFC14EB074441EB174195
:101780004FEA154714EB0C4441EB1C4125EA074C8A
:1017900002FB07F506FB07F70CFB06F602FB0CFC49
:1017A00016EB074645EB174516EB0C4645EB1C427E
:1017B000121951F1000148BF7047B619524141EB6F
:1017C0000101A3F1010370474FEA14454FEA1147A5
:1017D00024EA054621EA074C05FB07F106FB07F75B
:1017E0000CFB06F24FF0000605FB0CFC12EB074267
:1017F00041EB174112EB0C4251EB1C4148BF7047C3
:10180000921841EB0101A3F10103704721B18268F5
:1018100042F00102826003E0826822F001028260ED
:101820007047000010B504461248844208D10121D7
:10183000401504F051FB0021601504F04DFB17E04A
:101840000D48844208D10121001504F045FB002118
:10185000201504F041FB0BE00848844208D1012127
:10186000C80304F039FB00214FF4004004F034FBBE
:1018700010BD00000024014000280140003C014050
:10188000014600208A6802F004020AB1012000E04B
:10189000002070470146C86C80B2704702460020A5
:1018A00013680B400BB1012000E000207047014697
:1018B00000208A6802F008020AB1012000E000203E
:1018C0007047000030B502460020002350680F4CDE
:1018D00020400D790C6844EA05242043506090684C
:1018E0000B4C2040D1E902542C434D7944EA450485
:1018F00020439060D06A20F470000C7C641EE4B237
:10190000234340EA0350D06230BD0000FFFEF0FFE9
:10191000FDF7F1FFF0B504460D4600200021092D2A
:1019200011DDE068A5F10A0606EB4607072606FA70
:1019300007F18843A5F10A0606EB460603FA06F10D
:101940000843E0600CE0206905EB4507072606FA2E
:1019500007F1884305EB450603FA06F108432061C9
:10196000072A0FDA606B561E06EB86071F2606FA5B
:1019700007F18843561E06EB860605FA06F1084372
:10198000606322E00D2A0FDA206BD61F06EB860774
:101990001F2606FA07F18843D61F06EB860605FACE
:1019A00006F10843206310E0E06AA2F10D0606EBA1
:1019B00086071F2606FA07F18843A2F10D0606EBFB
:1019C000860605FA06F10843E062F0BD816841F041
:1019D00008018160704721B1826842F4A0028260F0
:1019E00003E0826822F4A00282607047816841F0BF
:1019F000040181607047000000B587B001214FF4F9
:101A0000057004F059FA4FF4004004F039FAFF2051
:101A1000ADF8040000208DF8070001A91C4800F073
:101A2000CEF83F20ADF8040000208DF8070001A992
:101A3000184800F0C4F81848FFF7F4FE00200290A0
:101A40008DF80C008DF80D004FF4602004900020FC
:101A5000059001208DF8180002A90F48FFF732FF0A
:101A600001210D48FFF7D2FE0B48FFF7AFFF00BF83
:101A70000948FFF71CFF0028FAD10748FFF7B6FF17
:101A800000BF0548FFF7FCFE0028FAD107B000BDF3
:101A900000080140001001400024014000BFFEE7A3
:101AA0007047000051B18200A2F1C042126842F0BA
:101AB00001038200A2F1C042136009E08200A2F19A
:101AC000C0421268034B1A408300A3F1C0431A605E
:101AD00070470000FEFF0F00D0E901121143C268F9
:101AE0001143026911434269114382691143C2697A
:101AF0001143026A1143426A1143826A1143C26A66
:101B00001143026B114302689200A2F1C0421160BE
:101B1000816808290BD101688900A1F1C0410968D9
:101B200041F0400201688900A1F1C0410A60416BA7
:101B30000968426B526841EA0211426B926841EABD
:101B40000221426B928941EA0241426B128A41EAC8
:101B50000251426B127D41EA0261426B926911436C
:101B60000268521C9200A2F1C0421160C16AB1F534
:101B7000804F1BD1816B0968826B526841EA021168
:101B8000826B926841EA0221826B128A41EA025119
:101B9000826B127D41EA0261826B92691143026895
:101BA0009200A2F1C042C2F8041107E06FF0704247
:101BB00001688900A1F1C041C1F8042170472DE9F5
:101BC000F0410246002500260020002300240027C3
:101BD00091F803C00CF00F0591F803C00CF0100C45
:101BE000BCF1000F03D091F802C04CEA050591F852
:101BF00000C0BCF1000F31D0146800202BE04FF082
:101C0000010C0CFA00F3B1F800C00CEA03069E4286
:101C100020D183004FF00F0C0CFA03F7BC4305FAF8
:101C200003FC4CEA040491F803C0BCF1280F06D170
:101C30004FF0010C0CFA00FCC2F814C00AE091F855
:101C400003C0BCF1480F05D14FF0010C0CFA00FCA9
:101C5000C2F810C0401C0828D1D31460B1F800C0ED
:101C6000BCF1FF0F34DD546800202EE000F1080CB9
:101C70004FF0010808FA0CF3B1F800C00CEA0306B3
:101C80009E4221D183004FF00F0C0CFA03F7BC43A6
:101C900005FA03FC4CEA040491F803C0BCF1280FD8
:101CA00005D100F1080C08FA0CF8C2F8148091F87C
:101CB00003C0BCF1480F07D100F1080C4FF0010838
:101CC00008FA0CF8C2F81080401C0828CED35460E3
:101CD000BDE8F08110B504460723012221460948DA
:101CE000FFF718FE01210748FFF775FE00BF02212C
:101CF0000448FFF7D3FD0028F9D00248FFF7CAFDDA
:101D000010BD000000240140F0B5B3B00746002428
:101D1000002500BF0AE03846FFF7DCFF01A921F8E3
:101D20001400052004F06EFA601CC4B2632CF2DBD0
:101D300000241BE0601CC5B214E001A830F81400B8
:101D400001A931F8151088420ADD01A830F81460A5
:101D500030F8150001A921F8140001A820F8156039
:101D6000681CC5B2632DE8DB601CC4B2332CE1DB18
:101D7000BDF86860304633B0F0BD00BFFEE700003C
:101D800070B5044600261748058840884543154825
:101D9000808846F60401884216D1124880790128CD
:101DA00012D100200F4988712A2048812B20888178
:101DB0000021084603F050FE01200A4988712B20BB
:101DC00048812A20888103E00021084603F044FE70
:101DD00004F002F8002602E003480480761CAE42BC
:101DE000FAD370BDA00000200008006C10B50446B6
:101DF000002C60D166498871F02008804FF4A070F3
:101E000048800846808849F2413188420BD06048BA
:101E1000808846F60401884205D05D48808845F2F6
:101E2000103188421AD12C20594908812A20488132
:101E30002B2088810846808846F60401884205D018
:101E40005348808845F21031884206D14FF4A07083
:101E50004F4908804FF4F070488095E04C488088E6
:101E600048F68911884207D12220494908814E202D
:101E700048814F20888187E04548808845F210518D
:101E8000884210D14FF43050414908814FF4285016
:101E900048814FF42C5088814FF4F07008804FF443
:101EA0004870488070E0222039490881202048810C
:101EB0002120888168E00120354988714FF4A070A5
:101EC0000880F02048800846808849F241318842E5
:101ED00005D02F48808845F21031884207D12C2048
:101EE0002B4908812A2048812B20888139E0284805
:101EF000808846F60401884207D12C2024490881B5
:101F00002B2048812A2088812BE02148808848F6B0
:101F10008911884207D122201D4908814F2048811C
:101F20004E2088811DE01A48808845F21051884271
:101F300010D14FF43050164908814FF42850488191
:101F40004FF42C5088814FF4487008804FF4F070A3
:101F5000488006E022200E49088121204881202067
:101F600088810B48808846F60401884205D00848DD
:101F7000808845F21031884206D14FF4F070044950
:101F800008804FF4A0704880002003F001FC10BDD1
:101F9000A000002030B504460D462946204603F037
:101FA0005BFD03F019FF024800880249088030BD3C
:101FB0001A0000200008006C2DE9FC4F05460E4673
:101FC00017469846DDF82C9000200190274880881D
:101FD00046F60401884229D124488079012825D178
:101FE000AB46354621480088C01B401E86B2474696
:101FF0001E480088A0EB0B00401E1FFA80F800204E
:102000001A4988712A2048812B20888143463A4604
:1020100031462846CDF80090FFF7CEFF0120134946
:1020200088712B2048812A2088811CE0781B401C65
:1020300080B20190344614E02146284603F00CFD9E
:1020400003F0CAFE4FF0000A06E0484603F0B8FE6F
:102050000AF101001FFA80FA01988245F5DB601C45
:1020600084B24445E8DDBDE8FC8F0000A0000020FC
:1020700000B59FB00121080203F00EFF012140F2DC
:10208000691003F019FF0120ADF8780010208DF8D9
:102090007B0003208DF87A001EA9FE48FFF78FFD14
:1020A0004CF23370ADF8780018208DF87B000320D7
:1020B0008DF87A001EA9F848FFF781FD4FF6807071
:1020C000ADF8780018208DF87B0003208DF87A0099
:1020D0001EA9F248FFF773FD41F20100ADF8780048
:1020E00018208DF87B0003208DF87A001EA9EC489B
:1020F000FFF765FD01200890002009900F200A904D
:1021000000200B900C900D900E90019002900320F7
:1021100003900020049005900690079006200F90F1
:102120000020109011901020129000201390159014
:102130001490169017904FF480501890002019902A
:102140004FF480401A9000201B9008A81C9001A812
:102150001D900FA8FFF7C0FC01210620FFF7A2FC8D
:10216000322004F04FF80121002003F03FFE32201E
:1021700004F048F8002003F0FFFACA4988800846B6
:102180008088FF280ADB084680884FF6FF71884266
:1021900004D0C4488088B0F5134F7CD1D32003F01D
:1021A00015FE03F0E3FA03F0E1FA03F0DFFABD49AC
:1021B0008880084680884FF6FF7101EA0020B949FF
:1021C000888003F0D3FAB74989880843B5498880E5
:1021D0000846808849F2413188426CD0BF2003F024
:1021E000F5FD03F0C3FA03F0C1FA03F0BFFA03F000
:1021F000BDFAAC498880084680884FF6FF7101EA35
:102200000020A849888003F0B1FAA64989880843CC
:10221000A44988800846808846F6040188424AD04E
:10222000D42003F0D3FD03F0A1FA03F09FFA03F0EA
:102230009DFA9C498880084680884FF6FF7101EA24
:1022400000209849888003F091FA964989880843CC
:10225000944988800846808845F2103188422AD007
:102260004FF45A4003F0B2FD03F080FA4FF45B40A4
:1022700003F0ACFD03F07AFA8A498880084680882A
:102280004FF6FF7101EA0020864988804FF45C40D8
:1022900003F09CFD00E00EE003F068FA81498988B4
:1022A00008438049888008468088B0F5004F02D1F5
:1022B00045F2105088807B48808849F2413188423D
:1022C0007ED1CF2003F082FD002003F079FDC120F4
:1022D00003F076FD302003F073FDED2003F076FD72
:1022E000642003F06DFD032003F06AFD122003F06B
:1022F00067FD812003F064FDE82003F067FD852081
:1023000003F05EFD102003F05BFD7A2003F058FD22
:10231000CB2003F05BFD392003F052FD2C2003F0AD
:102320004FFD002003F04CFD342003F049FD022056
:1023300003F046FDF72003F049FD202003F040FDA7
:10234000EA2003F043FD002003F03AFD002003F0F3
:1023500037FDC02003F03AFD1B2003F031FDC12002
:1023600003F034FD012003F02BFDC52003F02EFD0A
:10237000302003F025FD302003F022FDC72003F0BC
:1023800025FDB72003F01CFD362003F01FFD48207B
:1023900003F016FD3A2003F019FD552003F010FD5F
:1023A000B12003F013FD002003F00AFD1A2003F012
:1023B00007FDB62003F00AFD0A2003F001FD00E04E
:1023C000A3E0A22003F0FCFCF22003F0FFFC0020BD
:1023D00003F0F6FC262003F0F9FC012003F0F0FCEA
:1023E000E02003F0F3FC0F2003F0EAFC2A2003F0C6
:1023F000E7FC282003F0E4FC082003F0E1FC0E20B9
:1024000003F0DEFC082003F0DBFC542003F0D8FCD2
:10241000A92003F0D5FC432003F0D2FC0A2003F0EE
:10242000CFFC0F2003F0CCFC002003F0C9FC0020FF
:1024300003F0C6FC002003F0C3FC002003F0C0FC46
:10244000E12003F0C3FC002003F0BAFC152003F0E8
:10245000B7FC172003F0B4FC072003F0B1FC1120F7
:1024600003F0AEFC062003F0ABFC2B2003F0A8FC2D
:10247000562003F0A5FC3C2003F0A2FC052003F04D
:102480009FFC102003F09CFC0F2003F099FC3F20E0
:102490000AE00000000C0140001401400018014057
:1024A00000200140A000002003F08AFC3F2003F040
:1024B00087FC0F2003F084FC2B2003F087FC002016
:1024C00003F07EFC002003F07BFC012003F078FC8D
:1024D0003F2003F075FC2A2003F078FC002003F075
:1024E0006FFC002003F06CFC002003F069FCEF207F
:1024F00003F066FC112003F069FC782003F082FEF3
:10250000292003F063FC03F020B9FE48808846F6DA
:10251000040188427ED1112003F058FC142003F0FE
:1025200071FED02003F052FC072003F049FC42204A
:1025300003F046FC1D2003F043FCD12003F046FCD1
:10254000002003F03DFC1A2003F03AFC092003F0C0
:1025500037FCD22003F03AFC012003F031FC2220AA
:1025600003F02EFCC02003F031FC102003F028FC07
:102570003B2003F025FC002003F022FC022003F0A6
:102580001FFC112003F01CFCC52003F01FFC0320DE
:1025900003F016FCC82003F019FC002003F010FC27
:1025A000252003F00DFC212003F00AFC052003F098
:1025B00007FC002003F004FC0A2003F001FC652066
:1025C00003F0FEFB252003F0FBFB772003F0F8FB74
:1025D000502003F0F5FB0F2003F0F2FB002003F086
:1025E000EFFBF82003F0F2FB012003F0E9FBFE20F3
:1025F00003F0ECFB002003F0E3FB022003F0E0FB20
:10260000202003F0E3FB362003F0E0FB082003F07A
:10261000D7FB00E02AE03A2003F0D8FB552003F076
:10262000CFFB2B2003F0D2FB002003F0C9FB0020DE
:1026300003F0C6FB012003F0C3FB3F2003F0C0FB07
:102640002A2003F0C3FB002003F0BAFB002003F0B4
:10265000B7FB012003F0B4FBDF2003F0B1FB7820CF
:1026600003F0D0FD292003F0B1FB4CE7A54880889A
:1026700045F21031884240F07C87ED2003F0A6FB44
:10268000012003F09DFBFE2003F09AFBEE2003F0F7
:102690009DFBDE2003F094FB212003F091FBF12051
:1026A00003F094FB012003F08BFBDF2003F08EFB93
:1026B000102003F085FBC42003F088FB8F2003F07B
:1026C0007FFBC62003F082FB002003F079FBE220B1
:1026D00003F076FBE22003F073FBE22003F070FBD3
:1026E000BF2003F073FBAA2003F06AFBB02003F0C5
:1026F0006DFB0D2003F064FB002003F061FB0D2057
:1027000003F05EFB002003F05BFB112003F058FB9D
:10271000002003F055FB192003F052FB002003F0CA
:102720004FFB212003F04CFB002003F049FB2D2040
:1027300003F046FB002003F043FB3D2003F040FB89
:10274000002003F03DFB5D2003F03AFB002003F086
:1027500037FB5D2003F034FB002003F031FBB12098
:1027600003F034FB802003F02BFB002003F028FB58
:102770008B2003F025FB002003F022FB962003F0C2
:102780001FFB002003F01CFBB22003F01FFB002006
:1027900003F016FB002003F013FB022003F010FBF4
:1027A000002003F00DFB032003F00AFB002003F0E0
:1027B00007FBB32003F00AFB002003F001FB00201D
:1027C00003F0FEFA002003F0FBFA002003F0F8FA11
:1027D000002003F0F5FA002003F0F2FA002003F0E5
:1027E000EFFA002003F0ECFA002003F0E9FA0020F1
:1027F00003F0E6FA002003F0E3FA002003F0E0FA29
:10280000002003F0DDFA002003F0DAFA002003F0E4
:10281000D7FA002003F0D4FA002003F0D1FA002008
:1028200003F0CEFA002003F0CBFA002003F0C8FA40
:10283000002003F0C5FA002003F0C2FA002003F0E4
:10284000BFFA002003F0BCFAB42003F0BFFA8B20DB
:1028500003F0B6FA002003F0B3FA962003F0B0FAC2
:10286000002003F0ADFAA12003F0AAFA002003F043
:10287000A7FAB52003F0AAFA022003F0A1FA00207B
:1028800003F09EFA032003F09BFA002003F098FA6D
:10289000042003F095FA002003F092FAB62003F02A
:1028A00095FA002003F08CFA002003F089FAB72093
:1028B00003F08CFA002003F083FA002003F080FA82
:1028C0003F2003F07DFA002003F07AFA5E2003F047
:1028D00077FA002003F074FA642003F071FA002004
:1028E00003F06EFA8C2003F06BFA002003F068FA14
:1028F000AC2003F065FA002003F062FADC2003F05C
:102900005FFA01E0A0000020002003F059FA7020D7
:1029100003F056FA002003F053FA902003F050FA27
:10292000002003F04DFAEB2003F04AFA002003F0F8
:1029300047FADC2003F044FA002003F041FAB82003
:1029400003F044FA002003F03BFA002003F038FAC9
:10295000002003F035FA002003F032FA002003F0E3
:102960002FFA002003F02CFA002003F029FA0020AF
:1029700003F026FABA2003F029FA242003F020FA03
:10298000002003F01DFA002003F01AFA002003F0E3
:1029900017FAC12003F01AFA202003F011FA0020E0
:1029A00003F00EFA542003F00BFA002003F008FAAB
:1029B000FF2003F005FA002003F002FAC22003F022
:1029C00005FA0A2003F0FCF9002003F0F9F90420CD
:1029D00003F0F6F9002003F0F3F9C32003F0F6F951
:1029E0003C2003F0EDF9002003F0EAF93A2003F06F
:1029F000E7F9002003F0E4F9392003F0E1F90020C1
:102A000003F0DEF9372003F0DBF9002003F0D8F9FA
:102A10003C2003F0D5F9002003F0D2F9362003F072
:102A2000CFF9002003F0CCF9322003F0C9F90020DF
:102A300003F0C6F92F2003F0C3F9002003F0C0F91A
:102A40002C2003F0BDF9002003F0BAF9292003F08F
:102A5000B7F9002003F0B4F9262003F0B1F9002003
:102A600003F0AEF9242003F0ABF9002003F0A8F93D
:102A7000242003F0A5F9002003F0A2F9232003F09D
:102A80009FF9002003F09CF93C2003F099F9002005
:102A900003F096F9362003F093F9002003F090F943
:102AA000322003F08DF9002003F08AF92F2003F083
:102AB00087F9002003F084F92C2003F081F900202D
:102AC00003F07EF9292003F07BF9002003F078F968
:102AD000262003F075F9002003F072F9242003F09A
:102AE0006FF9002003F06CF9242003F069F900204D
:102AF00003F066F9232003F063F9002003F060F986
:102B0000C42003F063F9622003F05AF9002003F0B7
:102B100057F9052003F054F9002003F051F98420FF
:102B200003F04EF9002003F04BF9F02003F048F9D0
:102B3000002003F045F9182003F042F9002003F0CB
:102B40003FF9A42003F03CF9002003F039F91820E4
:102B500003F036F9002003F033F9502003F030F988
:102B6000002003F02DF90C2003F02AF9002003F0D7
:102B700027F9172003F024F9002003F021F995200C
:102B800003F01EF9002003F01BF9F32003F018F9FD
:102B9000002003F015F9E62003F012F9002003F0FD
:102BA0000FF9C52003F012F9322003F009F90020D3
:102BB00003F006F9442003F003F9002003F000F9C4
:102BC000652003F0FDF8002003F0FAF8762003F00A
:102BD000F7F8002003F0F4F8882003F0F1F8002063
:102BE00003F0EEF8C62003F0F1F8202003F0E8F837
:102BF000002003F0E5F8172003F0E2F8002003F0CE
:102C0000DFF8012003F0DCF8002003F0D9F8C7203A
:102C100003F0DCF8002003F0D3F8002003F0D0F834
:102C2000002003F0CDF8002003F0CAF8C82003F01C
:102C3000CDF8002003F0C4F8002003F0C1F8002014
:102C400003F0BEF8002003F0BBF8C92003F0BEF883
:102C5000002003F0B5F8002003F0B2F8002003F0E4
:102C6000AFF8002003F0ACF8002003F0A9F8002032
:102C700003F0A6F8002003F0A3F8002003F0A0F86A
:102C8000002003F09DF8002003F09AF8002003F0E4
:102C900097F8002003F094F8002003F091F800204A
:102CA00003F08EF8002003F08BF8002003F088F882
:102CB000E02003F08BF8162003F082F8002003F0E8
:102CC0007FF81C2003F07CF8002003F079F8212025
:102CD00003F076F8002003F073F8362003F070F864
:102CE000002003F06DF8462003F06AF8002003F09E
:102CF00067F8522003F064F8002003F061F86420C4
:102D000003F05EF8002003F05BF87A2003F058F837
:102D1000002003F055F88B2003F052F8002003F058
:102D20004FF8992003F04CF8002003F049F8A82050
:102D300003F046F8002003F043F8B92003F040F810
:102D4000002003F03DF8C42003F03AF8002003F01F
:102D500037F8CA2003F034F8002003F031F8D2200D
:102D600003F02EF8002003F02BF8D92003F028F808
:102D7000002003F025F8E02003F022F8002003F003
:102D80001FF8F32003F01CF8002003F019F8E120ED
:102D900003F01CF8162003F013F8002003F010F8DD
:102DA0001C2003F00DF8002003F00AF8222003F0A5
:102DB00007F8002003F004F8362003F001F80020A3
:102DC00002F0FEFF452002F0FBFF002002F0F8FFBA
:102DD000522002F0F5FF002002F0F2FF642002F022
:102DE000EFFF002002F0ECFF7A2002F0E9FF002064
:102DF00002F0E6FF8B2002F0E3FF002002F0E0FF8C
:102E0000992002F0DDFF002002F0DAFFA82002F096
:102E1000D7FF002002F0D4FFB92002F0D1FF00203C
:102E200002F0CEFFC42002F0CBFF002002F0C8FF6A
:102E3000CA2002F0C5FF002002F0C2FFD22002F03B
:102E4000BFFF002002F0BCFFD82002F0B9FF002035
:102E500002F0B6FFE02002F0B3FF002002F0B0FF66
:102E6000F32002F0ADFF002002F0AAFFE22002F002
:102E7000ADFF052002F0A4FF002002F0A1FF0B200F
:102E800002F09EFF002002F09BFF1B2002F098FF43
:102E9000002002F095FF342002F092FF002002F0A3
:102EA0008FFF442002F08CFF002002F089FF4F20AA
:102EB00002F086FF002002F083FF612002F080FF15
:102EC000002002F07DFF792002F07AFF002002F05E
:102ED00077FF882002F074FF002002F071FF972036
:102EE00002F06EFF002002F06BFFA62002F068FFE8
:102EF000002002F065FFB72002F062FF002002F020
:102F00005FFFC22002F05CFF002002F059FFC720E3
:102F100002F056FF002002F053FFD12002F050FFD4
:102F2000002002F04DFFD62002F04AFF002002F000
:102F300047FFDD2002F044FF002002F041FFF320B4
:102F400002F03EFF002002F03BFFE32002F03EFFD4
:102F5000052002F035FF002002F032FF0A2002F0C7
:102F60002FFF002002F02CFF1C2002F029FF002080
:102F700002F026FF332002F023FF002002F020FFA2
:102F8000442002F01DFF002002F01AFF502002F042
:102F900017FF002002F014FF622002F011FF002052
:102FA00002F00EFF782002F00BFF002002F008FF75
:102FB000882002F005FF002002F002FF972002F0B7
:102FC000FFFE002002F0FCFEA62002F0F9FE002029
:102FD00002F0F6FEB72002F0F3FE002002F0F0FE51
:102FE000C22002F0EDFE002002F0EAFEC72002F04F
:102FF000E7FE002002F0E4FED12002F0E1FE002016
:1030000002F0DEFED52002F0DBFE002002F0D8FE4A
:10301000DD2002F0D5FE002002F0D2FEF32002F007
:10302000CFFE002002F0CCFEE42002F0CFFE012013
:1030300002F0C6FE002002F0C3FE012002F0C0FE36
:10304000002002F0BDFE022002F0BAFE002002F0D5
:10305000B7FE2A2002F0B4FE002002F0B1FE3C20B0
:1030600002F0AEFE002002F0ABFE4B2002F0A8FE04
:10307000002002F0A5FE5D2002F0A2FE002002F07A
:103080009FFE742002F09CFE002002F099FE842036
:1030900002F096FE002002F093FE932002F090FED4
:1030A000002002F08DFEA22002F08AFE002002F035
:1030B00087FEB32002F084FE002002F081FEBE20D5
:1030C00002F07EFE002002F07BFEC42002F078FEBB
:1030D000002002F075FECD2002F072FE002002F00A
:1030E0006FFED32002F06CFE002002F069FEDD20AE
:1030F00002F066FE002002F063FEF32002F060FEA4
:10310000002002F05DFEE52002F060FE002002F0EB
:1031100057FE002002F054FE002002F051FE002075
:1031200002F04EFE022002F04BFE002002F048FEAC
:10313000292002F045FE002002F042FE3C2002F071
:103140003FFE002002F03CFE4B2002F039FE002042
:1031500002F036FE5D2002F033FE002002F030FE69
:10316000742002F02DFE002002F02AFE842002F0DE
:1031700027FE002002F024FE932002F021FE002012
:1031800002F01EFEA22002F01BFE002002F018FE3C
:10319000B32002F015FE002002F012FEBE2002F065
:1031A0000FFE002002F00CFEC42002F009FE0020F9
:1031B00002F006FECD2002F003FE002002F000FE29
:1031C000D32002F0FDFD002002F0FAFDDC2002F029
:1031D000F7FD002002F0F4FDF32002F0F1FD0020E5
:1031E00002F0EEFDE62002F0F1FD112002F0E8FD14
:1031F000002002F0E5FD342002F0E2FD002002F0A4
:10320000DFFD562002F0DCFD002002F0D9FD762023
:1032100002F0D6FD002002F0D3FD772002F0D0FDB1
:10322000002002F0CDFD662002F0CAFD002002F071
:10323000C7FD882002F0C4FD002002F0C1FD9920E6
:1032400002F0BEFD002002F0BBFDBB2002F0B8FD85
:10325000002002F0B5FD992002F0B2FD002002F03E
:10326000AFFD662002F0ACFD002002F0A9FD552064
:1032700002F0A6FD002002F0A3FD552002F0A0FD03
:10328000002002F09DFD452002F09AFD002002F092
:1032900097FD432002F094FD002002F091FD4420B0
:1032A00002F08EFD002002F08BFDE72002F08EFD83
:1032B000322002F085FD002002F082FD552002F050
:1032C0007FFD002002F07CFD762002F079FD0020D9
:1032D00002F076FD662002F073FD002002F070FD22
:1032E000672002F06DFD002002F06AFD672002F009
:1032F00067FD002002F064FD872002F061FD0020E0
:1033000002F05EFD992002F05BFD002002F058FD06
:10331000BB2002F055FD002002F052FD992002F082
:103320004FFD002002F04CFD772002F049FD002007
:1033300002F046FD442002F043FD002002F040FD73
:10334000562002F03DFD002002F03AFD232002F05D
:1033500037FD002002F034FD332002F031FD002063
:1033600002F02EFD452002F02BFD002002F028FD8A
:10337000E82002F02BFD002002F022FD002002F0E8
:103380001FFD992002F01CFD002002F019FD87208E
:1033900002F016FD002002F013FD882002F010FD5F
:1033A000002002F00DFD772002F00AFD002002F05F
:1033B00007FD662002F004FD002002F001FD8820D8
:1033C00002F0FEFC002002F0FBFCAA2002F0F8FC58
:1033D000002002F0F5FCBB2002F0F2FC002002F01D
:1033E000EFFC992002F0ECFC002002F0E9FC6620E2
:1033F00002F0E6FC002002F0E3FC552002F0E0FCC5
:10340000002002F0DDFC552002F0DAFC002002F082
:10341000D7FC442002F0D4FC002002F0D1FC442070
:1034200002F0CEFC002002F0CBFC552002F0C8FCDC
:10343000002002F0C5FCE92002F0C8FCAA2002F03E
:10344000BFFC002002F0BCFC002002F0B9FC002010
:1034500002F0B6FC002002F0B9FCAA2002F0B0FC99
:10346000CF2002F0B3FC002002F0AAFC002002F002
:10347000A7FC002002F0A4FC002002F0A1FC002028
:1034800002F09EFC002002F09BFC002002F098FC61
:10349000002002F095FC002002F092FC002002F0D7
:1034A0008FFC002002F08CFC002002F089FC002040
:1034B00002F086FC002002F083FC002002F080FC79
:1034C000002002F07DFC002002F07AFCF02002F0E7
:1034D0007DFC002002F074FC502002F071FC002002
:1034E00002F06EFC002002F06BFC002002F068FC91
:1034F000F32002F06BFC002002F062FCF92002F0E5
:1035000065FC062002F05CFC102002F059FC29202A
:1035100002F056FC002002F053FC3A2002F056FC68
:10352000552002F04DFC112002F050FC642002F006
:1035300069FE292002F04AFC352002F047FC0020F9
:1035400002F03EFC512002F041FCFF2002F038FC6A
:10355000532002F03BFC2C2002F032FC552002F0FC
:1035600035FC822002F02CFC2C2002F02FFC02F013
:10357000ECB8FE48808845F2105188427ED1552132
:103580004FF4704002F032FCAA214FF2010002F029
:103590002DFC52214FF2020002F028FC08214FF2CC
:1035A000030002F023FC01214FF2040002F01EFC94
:1035B0000D214FF4304002F019FC0D214BF20100B7
:1035C00002F014FC0D214BF2020002F00FFC34213A
:1035D0004FF4364002F00AFC34214BF2016002F055
:1035E00005FC34214BF2026002F000FC0D214FF487
:1035F000314002F0FBFB0D214BF2011002F0F6FB13
:103600000D214BF2021002F0F1FB34214FF4374050
:1036100002F0ECFB34214BF2017002F0E7FB3421A5
:103620004BF2027002F0E2FB00214FF4324002F054
:10363000DDFB00214BF2012002F0D8FB00214BF210
:10364000022002F0D3FB24214FF4384002F0CEFBDD
:1036500024214BF6010002F0C9FB24214BF60200A5
:1036600002F0C4FB01214FF43F4002F0BFFB0F21E9
:103670004FF4334002F0BAFB0F2100E0FEE34BF2BF
:10368000013002F0B3FB0F214BF2023002F0AEFB2F
:1036900034214FF4394002F0A9FB34214BF60110DC
:1036A00002F0A4FB34214BF6021002F09FFB08212C
:1036B0004FF4354002F09AFB08214BF2015002F022
:1036C00095FB08214BF2025002F090FB03214FF4CE
:1036D000424002F08BFB24214FF43A4002F086FB7B
:1036E00024214BF6012002F081FB24214BF602201D
:1036F00002F07CFB00214FF43C4002F077FB782184
:103700004BF6014002F072FB00214BF6024002F042
:103710006DFB00214FF43D4002F068FB78214BF631
:10372000015002F063FB00214BF6025002F05EFBF9
:1037300000214FF43E4002F059FB64214BF601603A
:1037400002F054FB00214FF4514002F04FFB3321B3
:103750004DF2011002F04AFB00214DF2021002F07E
:1037600045FB34214DF2031002F040FB00214DF2E5
:10377000041002F03BFB3A214DF2051002F036FB3B
:1037800000214DF2061002F031FB4A214DF20710E4
:1037900002F02CFB00214DF2081002F027FB5C2107
:1037A0004DF2091002F022FB00214DF20A1002F046
:1037B0001DFB81214DF20B1002F018FB00214DF290
:1037C0000C1002F013FBA6214DF20D1002F00EFBBF
:1037D00000214DF20E1002F009FBE5214DF20F1011
:1037E00002F004FB01214DF2101002F0FFFA132148
:1037F0004DF2111002F0FAFA01214DF2121002F00E
:10380000F5FA54214DF2131002F0F0FA01214DF2B5
:10381000141002F0EBFA82214DF2151002F0E6FAD4
:1038200001214DF2161002F0E1FACA214DF21710F3
:1038300002F0DCFA02214DF2181002F0D7FA002152
:103840004DF2191002F0D2FA02214DF21A1002F0D4
:10385000CDFA01214DF21B1002F0C8FA02214DF2FF
:103860001C1002F0C3FA34214DF21D1002F0BEFA12
:1038700002214DF21E1002F0B9FA67214DF21F101D
:1038800002F0B4FA02214DF2201002F0AFFA8421C6
:103890004DF2211002F0AAFA02214DF2221002F09C
:1038A000A5FAA4214DF2231002F0A0FA02214DF254
:1038B000241002F09BFAB7214DF2251002F096FA7F
:1038C00002214DF2261002F091FACF214DF227107D
:1038D00002F08CFA02214DF2281002F087FADE2164
:1038E0004DF2291002F082FA02214DF22A1002F064
:1038F0007DFAF2214DF22B1002F078FA02214DF2FE
:103900002C1002F073FAFE214DF22D1002F06EFA27
:1039100003214DF22E1002F069FA10214DF22F1002
:1039200002F064FA03214DF2301002F05FFA332105
:103930004DF2311002F05AFA03214DF2321002F02A
:1039400055FA6D214DF2331002F050FA00214FF478
:10395000524002F04BFA33214DF2012002F046FAB8
:1039600000214DF2022002F041FA01E0A000002007
:1039700034214DF2032002F039FA00214DF20420E7
:1039800002F034FA3A214DF2052002F02FFA00211C
:103990004DF2062002F02AFA4A214DF2072002F0E9
:1039A00025FA00214DF2082002F020FA5C214DF2A8
:1039B000092002F01BFA00214DF20A2002F016FA4B
:1039C00081214DF20B2002F011FA00214DF20C2062
:1039D00002F00CFAA6214DF20D2002F007FA0021A8
:1039E0004DF20E2002F002FAE5214DF20F2002F016
:1039F000FDF901214DF2102002F0F8F913214DF2EA
:103A0000112002F0F3F901214DF2122002F0EEF93B
:103A100054214DF2132002F0E9F901214DF2142056
:103A200002F0E4F982214DF2152002F0DFF90121C4
:103A30004DF2162002F0DAF9CA214DF2172002F0F9
:103A4000D5F902214DF2182002F0D0F900214DF2F3
:103A5000192002F0CBF902214DF21A2002F0C6F92A
:103A600001214DF21B2002F0C1F902214DF21C2070
:103A700002F0BCF934214DF21D2002F0B7F9022109
:103A80004DF21E2002F0B2F967214DF21F2002F024
:103A9000ADF902214DF2202002F0A8F984214DF267
:103AA000212002F0A3F902214DF2222002F09EF91A
:103AB000A4214DF2232002F099F902214DF2242095
:103AC00002F094F9B7214DF2252002F08FF902217E
:103AD0004DF2262002F08AF9CF214DF2272002F084
:103AE00085F902214DF2282002F080F9DE214DF205
:103AF000292002F07BF902214DF22A2002F076F90A
:103B0000F2214DF22B2002F071F902214DF22C200E
:103B100002F06CF9FE214DF22D2002F067F903212D
:103B20004DF22E2002F062F910214DF22F2002F00A
:103B30005DF903214DF2302002F058F933214DF2A6
:103B4000312002F053F903214DF2322002F04EF9F8
:103B50006D214DF2332002F049F900214FF453401A
:103B600002F044F933214DF2013002F03FF9002117
:103B70004DF2023002F03AF934214DF2033002F0F6
:103B800035F900214DF2043002F030F93A214DF2BE
:103B9000053002F02BF900214DF2063002F026F933
:103BA0004A214DF2073002F021F900214DF2083090
:103BB00002F01CF95C214DF2093002F017F90021E6
:103BC0004DF20A3002F012F981214DF20B3002F071
:103BD0000DF900214DF20C3002F008F9A6214DF24A
:103BE0000D3002F003F900214DF20E3002F0FEF824
:103BF000E5214DF20F3002F0F9F801214DF21030BD
:103C000002F0F4F813214DF2113002F0EFF8012127
:103C10004DF2123002F0EAF854214DF2133002F066
:103C2000E5F801214DF2143002F0E0F882214DF266
:103C3000153002F0DBF801214DF2163002F0D6F813
:103C4000CA214DF2173002F0D1F802214DF218309E
:103C500002F0CCF800214DF2193002F0C7F8022131
:103C60004DF21A3002F0C2F801214DF21B3002F081
:103C7000BDF802214DF21C3002F0B8F834214DF2AB
:103C80001D3002F0B3F802214DF21E3002F0AEF802
:103C900067214DF21F3002F0A9F802214DF22030C9
:103CA00002F0A4F884214DF2213002F09FF80221A5
:103CB0004DF2223002F09AF8A4214DF2233002F0A6
:103CC00095F802214DF2243002F090F8B7214DF220
:103CD000253002F08BF802214DF2263002F086F8F2
:103CE000CF214DF2273002F081F802214DF2283029
:103CF00002F07CF8DE214DF2293002F077F8022143
:103D00004DF22A3002F072F8F2214DF22B3002F01F
:103D10006DF802214DF22C3002F068F8FE214DF2D0
:103D20002D3002F063F803214DF22E3002F05EF8E0
:103D300010214DF22F3002F059F803214DF23030AE
:103D400002F054F833214DF2313002F04FF80321E4
:103D50004DF2323002F04AF86D214DF2333002F06C
:103D600045F800214FF4544002F040F833214DF261
:103D7000014002F03BF800214DF2024002F036F81B
:103D800034214DF2034002F031F800214DF204409D
:103D900002F02CF83A214DF2054002F027F80021FC
:103DA0004DF2064002F022F84A214DF2074002F09F
:103DB0001DF800214DF2084002F018F85C214DF288
:103DC000094002F013F800214DF20A4002F00EF80B
:103DD00081214DF20B4002F009F800214DF20C4018
:103DE00002F004F8A6214DF20D4001F0FFFF002182
:103DF0004DF20E4001F0FAFFE5214DF20F4001F0C7
:103E0000F5FF01214DF2104001F0F0FF13214DF2BA
:103E1000114001F0EBFF01214DF2124001F0E6FFED
:103E200054214DF2134001F0E1FF01214DF2144005
:103E300001F0DCFF82214DF2154001F0D7FF012196
:103E40004DF2164001F0D2FFCA214DF2174001F0A9
:103E5000CDFF02214DF2184001F0C8FF00214DF2C4
:103E6000194001F0C3FF02214DF21A4001F0BEFFDC
:103E700001214DF21B4001F0B9FF00E004E30221F3
:103E80004DF21C4001F0B2FF34214DF21D4001F013
:103E9000ADFF02214DF21E4001F0A8FF67214DF257
:103EA0001F4001F0A3FF02214DF2204001F09EFFD0
:103EB00084214DF2214001F099FF02214DF2224070
:103EC00001F094FFA4214DF2234001F08FFF022165
:103ED0004DF2244001F08AFFB7214DF2254001F058
:103EE00085FF02214DF2264001F080FFCF214DF2E7
:103EF000274001F07BFF02214DF2284001F076FFC0
:103F0000DE214DF2294001F071FF02214DF22A40DD
:103F100001F06CFFF2214DF22B4001F067FF02210E
:103F20004DF22C4001F062FFFE214DF22D4001F0D8
:103F30005DFF03214DF22E4001F058FF10214DF29C
:103F40002F4001F053FF03214DF2304001F04EFFAE
:103F500033214DF2314001F049FF03214DF232404F
:103F600001F044FF6D214DF2334001F03FFF00218D
:103F70004FF4554001F03AFF33214DF2015001F06A
:103F800035FF00214DF2025001F030FF34214DF297
:103F9000035001F02BFF00214DF2045001F026FFE9
:103FA0003A214DF2055001F021FF00214DF206505B
:103FB00001F01CFF4A214DF2075001F017FF0021CC
:103FC0004DF2085001F012FF5C214DF2095001F052
:103FD0000DFF00214DF20A5001F008FF81214DF242
:103FE0000B5001F003FF00214DF20C5001F0FEFEDA
:103FF000A6214DF20D5001F0F9FE00214DF20E50B8
:1040000001F0F4FEE5214DF20F5001F0EFFE012129
:104010004DF2105001F0EAFE13214DF2115001F063
:10402000E5FE01214DF2125001F0E0FE54214DF267
:10403000135001F0DBFE01214DF2145001F0D6FEC9
:1040400082214DF2155001F0D1FE01214DF21650A2
:1040500001F0CCFECA214DF2175001F0C7FE02213B
:104060004DF2185001F0C2FE00214DF2195001F03E
:10407000BDFE02214DF21A5001F0B8FE01214DF2B1
:104080001B5001F0B3FE02214DF21C5001F0AEFEB8
:1040900034214DF21D5001F0A9FE02214DF21E50B7
:1040A00001F0A4FE67214DF21F5001F09FFE022196
:1040B0004DF2205001F09AFE84214DF2215001F082
:1040C00095FE02214DF2225001F090FEA4214DF206
:1040D000235001F08BFE02214DF2245001F086FEA8
:1040E000B7214DF2255001F081FE02214DF22650FC
:1040F00001F07CFECF214DF2275001F077FE022126
:104100004DF2285001F072FEDE214DF2295001F0EF
:104110006DFE02214DF22A5001F068FEF2214DF2AF
:104120002B5001F063FE02214DF22C5001F05EFE97
:10413000FE214DF22D5001F059FE03214DF22E507B
:1041400001F054FE10214DF22F5001F04FFE0321DB
:104150004DF2305001F04AFE33214DF2315001F062
:1041600045FE03214DF2325001F040FE6D214DF22B
:10417000335001F03BFE00214FF4564001F036FE73
:1041800033214DF2016001F031FE00214DF2026059
:1041900001F02CFE34214DF2036001F027FE0021D6
:1041A0004DF2046001F022FE3A214DF2056001F06B
:1041B0001DFE00214DF2066001F018FE4A214DF26D
:1041C000076001F013FE00214DF2086001F00EFEC1
:1041D0005C214DF2096001F009FE00214DF20A60F8
:1041E00001F004FE81214DF20B6001F0FFFD002182
:1041F0004DF20C6001F0FAFDA6214DF20D6001F0C8
:10420000F5FD00214DF20E6001F0F0FDE5214DF2CB
:104210000F6001F0EBFD01214DF2106001F0E6FDB1
:1042200013214DF2116001F0E1FD01214DF2126008
:1042300001F0DCFD54214DF2136001F0D7FD0121A6
:104240004DF2146001F0D2FD82214DF2156001F0B3
:10425000CDFD01214DF2166001F0C8FDCA214DF2DD
:10426000176001F0C3FD02214DF2186001F0BEFDA0
:1042700000214DF2196001F0B9FD02214DF21A60E2
:1042800001F0B4FD01214DF21B6001F0AFFD0221F0
:104290004DF21C6001F0AAFD34214DF21D6001F0C9
:1042A000A5FD02214DF21E6001F0A0FD67214DF237
:1042B0001F6001F09BFD02214DF2206001F096FD90
:1042C00084214DF2216001F091FD02214DF2226026
:1042D00001F08CFDA4214DF2236001F087FD022145
:1042E0004DF2246001F082FDB7214DF2256001F00E
:1042F0007DFD02214DF2266001F078FDCF214DF2C7
:10430000276001F073FD02214DF2286001F06EFD7F
:10431000DE214DF2296001F069FD02214DF22A6093
:1043200001F064FDF2214DF22B6001F05FFD0221EE
:104330004DF22C6001F05AFDFE214DF22D6001F08E
:1043400055FD03214DF22E6001F050FD10214DF27C
:104350002F6001F04BFD03214DF2306001F046FD6E
:1043600033214DF2316001F041FD03214DF2326005
:1043700001F03CFD6D214DF2336001F037FD552118
:104380004FF4704001F032FDAA214FF2010001F01C
:104390002DFD52214FF2020001F028FD08214FF2BD
:1043A000030001F023FD00214FF2040001F01EFD87
:1043B000CC214FF4314001F019FD00214BF20110E6
:1043C00001F014FD05214FF4364001F00FFD70217E
:1043D0004FF4374001F00AFD70214BF2017001F0FB
:1043E00005FD01214FF4384001F000FD03214BF69B
:1043F000010001F0FBFC03214BF6020001F0F6FC8A
:1044000003214BF6030001F0F1FC02214FF43C4084
:1044100001F0ECFC00214BF6014001F0E7FC00212B
:104420004BF6024001F0E2FCD0214FF4494001F08C
:10443000DDFC02214CF6011001F0D8FC50214CF6B5
:10444000021001F0D3FC50214CF6031001F0CEFC19
:1044500050214CF6041001F0C9FC00214FF45450D7
:1044600001F0C4FC55214FF4685001F0BFFC4FF43B
:10447000885001F0ABFC782001F0EAFE4FF42450A4
:1044800001F0A4FC01F061B9FE48808849F22531B1
:1044900088427DD147F6F001E52001F0A7FC4FF4FA
:1044A0008071012001F0A2FC4FF4E061022001F0D4
:1044B0009DFC41F23001032001F098FC0021042012
:1044C00001F094FC40F20221082001F08FFC002151
:1044D000092001F08BFC00210A2001F087FC00215B
:1044E0000C2001F083FC00210D2001F07FFC002155
:1044F0000F2001F07BFC0021102001F077FC072148
:10450000112001F073FC0021122001F06FFC00214A
:10451000132001F06BFC0021072001F067FC41F241
:104520009061102001F062FC40F22721112001F07F
:104530005DFC9D21122001F059FC4FF4C85113205D
:1045400001F054FC2521292001F050FC0D212B20E5
:1045500001F04CFC0721302001F048FC40F203310F
:10456000312001F043FC0321322001F03FFC40F2F6
:104570000621352001F03AFC0821362001F036FCF6
:1045800040F20641372001F031FC4FF4417100E068
:1045900058E0382001F02AFC0721392001F026FCE0
:1045A00040F202613C2001F021FC08213D2001F095
:1045B0001DFC0021502001F019FCEF21512001F0D9
:1045C00015FC0021522001F011FC40F23F11532054
:1045D00001F00CFC4FF42741602001F007FC0121A1
:1045E000612001F003FC00216A2001F0FFFB0021A3
:1045F000802001F0FBFB0021812001F0F7FB00216E
:10460000822001F0F3FB0021832001F0EFFB002169
:10461000842001F0EBFB0021852001F0E7FB102155
:10462000902001F0E3FB4FF4C061922001F0DEFB2B
:1046300040F23311072001F0D9FB2221002001F0C4
:10464000D5FB1FE78F48808849F2283188427DD109
:1046500041F28F01EC2001F0C9FB41F23421EF203F
:1046600001F0C4FB4FF48071012001F0BFFB4FF457
:10467000E061022001F0BAFB41F23001032001F0B9
:10468000B5FB0021042001F0B1FB40F2022108201B
:1046900001F0ACFB0021092001F0A8FB00210A2059
:1046A00001F0A4FB01210C2001F0A0FB00210D2052
:1046B00001F09CFB00210F2001F098FB002110204D
:1046C00001F094FB0721112001F090FB0021122042
:1046D00001F08CFB0021132001F088FB0121072051
:1046E00001F084FB322001F08DFD41F29041102059
:1046F00001F07CFB40F22721112001F077FB3220F2
:1047000001F080FD8A21122001F070FB322001F0BF
:1047100079FD4FF4D051132001F068FB06212920C8
:1047200001F064FB0D212B2001F060FB322001F031
:1047300069FD0021202001F059FB0021212001F01A
:1047400055FB322001F05EFD002100E075E03020D5
:1047500001F04CFB40F20461312001F047FB40F2D4
:104760000531322001F042FB0021352001F03EFBF3
:1047700040F60941362001F039FB4FF40171372032
:1047800001F034FB40F20131382001F02FFB40F200
:104790000771392001F02AFB00213C2001F026FBA3
:1047A00040F60A213D2001F021FB322001F02AFDD4
:1047B0000021502001F01AFBEF21512001F016FBDF
:1047C0000021522001F012FB40F23F11532001F072
:1047D0000DFB4FF42741602001F008FB012161200F
:1047E00001F004FB00216A2001F000FB0021802081
:1047F00001F0FCFA0021812001F0F8FA002182206A
:1048000001F0F4FA0021832001F0F0FA0021842065
:1048100001F0ECFA0021852001F0E8FA1021902047
:1048200001F0E4FA4FF4C061922001F0DFFA40F2A7
:104830003311072001F0DAFA24E61248808849F2A1
:10484000203188427ED10021084601F0CFFA4FF492
:104850008071012001F0CAFA4FF4E061022001F0FA
:10486000C5FA41F23001032001F0C0FA0021042012
:1048700001F0BCFA40F20221082001F0B7FA002151
:10488000092001E0A000002001F0B0FA00210A2078
:1048900001F0ACFA01210C2001F0A8FA00210D2052
:1048A00001F0A4FA00210F2001F0A0FA322001F05B
:1048B000A9FC40F20111072001F098FA322001F022
:1048C000A1FC4FF48651102001F090FA072111202D
:1048D00001F08CFA4FF48871122001F087FA4FF43E
:1048E0003061132001F082FA0021292001F07EFAC4
:1048F00044F210012B2001F079FA0021502001F040
:1049000075FAEF21512001F071FA0021522001F0D7
:104910006DFA40F23F11532001F068FA4FF41C5138
:10492000602001F063FA0121612001F05FFA0021AB
:104930006A2001F05BFA0021802001F057FA002183
:10494000812000E030E001F051FA0021822001F0E6
:104950004DFA0021832001F049FA0021842001F062
:1049600045FA0021852001F041FA1021902001F044
:104970003DFA0021922001F039FA0121932001F043
:1049800035FA4FF48871952001F030FA0021972014
:1049900001F02CFA0021982001F028FA40F273115E
:1049A000072001F023FA6DE5FE48808849F2313195
:1049B00088427DD141F21401E72001F017FA4FF44B
:1049C0008071012001F012FA4FF40071022001F011
:1049D0000DFA41F23801032001F008FA40F20221F9
:1049E000082001F003FA0021092001F0FFF900215D
:1049F0000A2001F0FBF900210C2001F0F7F9002159
:104A00000D2001F0F3F900210F2001F0EFF9002152
:104A1000102001F0EBF90721112001F0E7F9002146
:104A2000122001F0E3F90021132001F0DFF9C82082
:104A300001F0E8FB41F29061102001F0D7F940F25B
:104A40002721112001F0D2F9322001F0DBFB0C21EB
:104A5000122001F0CBF9322001F0D4FB4FF40061B9
:104A6000132001F0C3F91121292001F0BFF90B2116
:104A70002B2001F0BBF9322001F0C4FB00212020E3
:104A800001F0B4F940F23F11212001F0AFF900210B
:104A9000302001F0ABF94FF48371312001F0A6F919
:104AA0000021322001F0A2F94FF40171352000E01D
:104AB00064E001F09BF941F20A61362001F096F9B9
:104AC00040F20771372001F091F94FF483713820DB
:104AD00001F08CF940F20771392001F087F940F2BA
:104AE00002413C2001F082F940F60F413D2001F0E7
:104AF0007DF90021502001F079F9EF21512001F0DA
:104B000075F90021522001F071F940F23F11532054
:104B100001F06CF94FF41C51602001F067F901219C
:104B2000612001F063F900216A2001F05FF90021A2
:104B3000802001F05BF90021812001F057F900216C
:104B4000822001F053F90021832001F04FF9002168
:104B5000842001F04BF90021852001F047F9102154
:104B6000902001F043F94FF4C061922001F03EF92A
:104B700040F23311072001F039F983E48948808835
:104B800045F2084188427DD14FF48071012001F047
:104B90002DF94FF4E061022001F028F941F23001D3
:104BA000032001F023F90021042001F01FF940F255
:104BB0000721082001F01AF90021092001F016F957
:104BC00000210A2001F012F900210C2001F00EF959
:104BD00000210D2001F00AF900210F2001F006F953
:104BE000142001F00FFB41F2B061102001F0FEF83B
:104BF0000121112001F0FAF80121172001F0F6F847
:104C00004FF49C71122001F0F1F84FF40061132071
:104C100001F0ECF80921292001F0E8F809212A2007
:104C200001F0E4F80021A42001F0E0F80021502078
:104C300001F0DCF8EF21512001F0D8F800215220DA
:104C400001F0D4F840F23F11532001F0CFF84FF4B7
:104C50001C51602001F0CAF80121612001F0C6F862
:104C600000216A2001F0C2F80021802001F0BEF886
:104C70000021812001F0BAF80021822001F0B6F86D
:104C8000002100E024E0832001F0B0F8002184201E
:104C900001F0ACF80021852001F0A8F81321902044
:104CA00001F0A4F80021922001F0A0F80321932044
:104CB00001F09CF84FF48871952001F097F840F2CC
:104CC0007311072001F092F8322001F09BFAB8E44A
:104CD0003448808841F2055188427DD10021072067
:104CE00001F084F8322001F08DFA4FF48E71122019
:104CF00001F07CF80121A42001F078F80F210820B0
:104D000001F074F808210A2001F070F808210D2044
:104D100001F06CF840F20771302001F067F80721CC
:104D2000312001F063F840F20361322001F05EF8B7
:104D30004FF4E061332001F059F840F202213420B1
:104D400001F054F80221352001F050F841F60F71BE
:104D5000362001F04BF840F20771372001F046F899
:104D60000021382001F042F80021392001F03EF8FE
:104D700040F207713A2001F039F800213B2001F0A0
:104D800035F807213C2001F031F800213D2001F0E9
:104D90002DF8322001F036FA0121072001F026F823
:104DA000012101E0A0000020172001F01FF83220AF
:104DB00001F028FA4FF4BD51102001F017F840F22D
:104DC0001721112001F012F84FF48F71122001F019
:104DD0000DF84FF4706100E098E0132001F006F840
:104DE00000212A2001F002F80A21292000F0FEFF0C
:104DF0004FF49F71122000F0F9FF0021502000F0C5
:104E0000F5FFEF21512000F0F1FF0021522000F0CA
:104E1000EDFF40F23F11532000F0E8FF4FF41C512A
:104E2000602000F0E3FF0121612000F0DFFF00219E
:104E30006A2000F0DBFF0021802000F0D7FF002176
:104E4000812000F0D3FF0021822000F0CFFF00215D
:104E5000832000F0CBFF0021842000F0C7FF002159
:104E6000852000F0C3FF1321902000F0BFFF4FF416
:104E70004071922000F0BAFF0521932000F0B6FFA8
:104E80000021952000F0B2FF0021972000F0AEFF36
:104E90000021982000F0AAFF4FF48071012000F05B
:104EA000A5FF4FF4E061022000F0A0FF41F23801BD
:104EB000032000F09BFF0021042000F097FF002159
:104EC0000C2000F093FF00210F2000F08FFF002145
:104ED000202000F08BFF0021212000F087FF2121FE
:104EE000072000F083FF142001F08CF961210720D6
:104EF00000F07CFF142001F085F940F273110720C7
:104F000000F074FF142001F07DF995E4FE488088DC
:104F10004BF2055188427CD10021084600F066FF23
:104F20000021084600F062FF0021084600F05EFF05
:104F30000021084600F05AFF0121A42000F056FF8E
:104F4000142001F05FF94FF41C51602000F04EFF77
:104F500040F20221082000F049FF4FF40571302093
:104F600000F044FF43F21571312000F03FFF40F2A2
:104F70000461322000F03AFF40F61661332000F061
:104F800035FF42F21121342000F030FF4FF4A851D8
:104F9000352000F02BFF48F20751362000F026FFA5
:104FA00041F20741372000F021FF41F20341382050
:104FB00000F01CFF2021392000F018FF1A2190205A
:104FC00000F014FF0021102000F010FF0721112035
:104FD00000F00CFF0021122000F008FF0021132038
:104FE00000F004FF142001F00DF94FF4E6611020E9
:104FF00000F0FCFE40F23711112000F0F7FE142003
:1050000001F000F94FF4DC71122000F0EFFE1420E3
:1050100000E085E001F0F6F84FF47061132000F035
:10502000E5FE80212A2000F0E1FE4821292000F041
:10503000DDFE142001F0E6F84FF48071012000F04D
:10504000D5FE4FF4E061022000F0D0FE41F23801BD
:10505000032000F0CBFE40F20221082000F0C6FE43
:1050600000210A2000F0C2FE00210C2000F0BEFE4C
:1050700000210D2000F0BAFE30210E2000F0B6FE17
:105080000021502000F0B2FEEF21512000F0AEFED2
:105090000021522000F0AAFE40F23F11532000F000
:1050A000A5FE4FF41C51602000F0A0FE01216120FC
:1050B00000F09CFE00216A2000F098FE1121902053
:1050C00000F094FE4FF4C061922000F08FFE40F299
:1050D0000241932000F08AFE0221942000F086FE17
:1050E000142001F08FF80121072000F07FFE14202A
:1050F00001F088F86121072000F078FE40F273117A
:10510000072000F073FE0021202000F06FFE002138
:10511000212000F06BFE2221002000F067FE14E346
:10512000794880884CF2055188427CD1002108469C
:1051300000F05CFE0021084600F058FE142001F04B
:1051400061F80021084600F051FE0021084600F0F9
:105150004DFE0021084600F049FE0021084600F0FF
:1051600045FE0121A42000F041FE142001F04AF880
:105170004FF41C51602000F039FE40F60601082073
:1051800000F034FE40F20371302000F02FFE0121C8
:10519000312000F02BFE0421322000F027FE4FF4D6
:1051A0008171332000F022FE4FF44071342000F072
:1051B0001DFE40F20311352000F018FE1F2136209D
:1051C00000F014FE40F20371372000F00FFE0121C1
:1051D000382000F00BFE0421392000F007FE1521D5
:1051E000902000F003FE4FF48261102000F0FEFDDD
:1051F00040F24721112000F0F9FD4FF4DE7112203A
:1052000000F0F4FD4FF46061132000F0EFFD782012
:1052100000F0F8FF4FF48071012000F0E7FD4FF43B
:105220000071022000E052E000F0E0FD41F23001A8
:10523000032000F0DBFD08210A2000F0D7FD00214B
:105240000C2000F0D3FD20210E2000F0CFFD002126
:105250000F2000F0CBFD0021202000F0C7FD002131
:10526000212000F0C3FD3D212A2000F0BFFD1420C5
:1052700000F0C8FF2D21292000F0B8FD00215020AA
:1052800000F0B4FD4DF2EF01512000F0AFFD002120
:10529000522000F0ABFD40F23F11532000F0A6FD7C
:1052A0000021612000F0A2FD00216A2000F09EFD97
:1052B0004FF44071922000F099FD0521932000F0F9
:1052C00095FD4FF48071072000F090FD3DE20E48FF
:1052D000808848F6891188427ED10121002000F0A3
:1052E00085FD4AF6A401032000F080FD00210C207A
:1052F00000F07CFD40F60C010D2000F077FD4FF42E
:105300002C510E2002E00000A000002000F06EFDF5
:10531000B0211E2000F06AFD42F63F31012000F06E
:1053200065FD4FF4C061022000F060FD00211020F7
:1053300000F05CFD46F27801112000F057FD0021DD
:10534000052000F053FD0021062000F04FFD4EF631
:105350001C71162000F04AFD0321172000F046FDC5
:1053600040F23321072000F041FD00210B2000F026
:105370003DFD00210F2000F039FD0021412000F00B
:1053800035FD0021422000F031FD0021482000F0D1
:105390002DFD40F23F11492000F028FD00214A2058
:1053A00000F024FD00214B2000F020FD4FF46F4160
:1053B000442000F01BFD0021452000F017FD40F2C5
:1053C0003F11462000F012FD40F20771302000F03E
:1053D0000DFD4FF4017100E040E0312000F006FDCA
:1053E0004FF40171322000F001FD40F202513320F0
:1053F00000F0FCFC40F20751342000F0F7FC4FF4C1
:105400000171352000F0F2FC4FF40171362000F0FC
:10541000EDFC40F20251372000F0E8FC40F202318E
:105420003A2000F0E3FC40F202313B2000F0DEFCC9
:105430000021232000F0DAFC0021242000F0D6FC1B
:105440004FF40041252000F0D1FC00214F2000F056
:10545000CDFC00214E2000F0C9FC76E1C1488088D7
:1054600044F2315188427DD10121002000F0BEFC80
:105470000A2000F0C7FE41F22861102000F0B6FCBF
:105480000E21122000F0B2FC40F63921132000F06A
:10549000ADFC0A2000F0B6FE4021112000F0A6FC71
:1054A0005021152000F0A2FC0A2000F0ABFE1E21C6
:1054B000122000F09BFC0A2000F0A4FE4FF4B15132
:1054C000102000F093FC42F63921132000F08EFCEE
:1054D0000A2000F097FE4FF48071012000F086FC56
:1054E0004FF44071022000F081FC41F238010320AA
:1054F00000F07CFC40F20221082000F077FC08213B
:105500000A2000F073FC0021302000F06FFC40F214
:105510000241312000F06AFC4FF48371322000F028
:1055200065FC40F20351332000F060FC4FF48271BF
:10553000342000F05BFC40F20131352000F056FCD5
:1055400040F20771362000F051FC40F2053137205F
:1055500000F04CFC4FF40271382000F047FC40F69C
:105560000B7100E03CE0392000F040FC02214120BA
:1055700000F03CFC4FF41C51602000F037FC01218E
:10558000612000F033FC4FF40471902000F02EFCF9
:105590004FF48571922000F029FC0421932000F043
:1055A00025FC4FF48071A02000F020FC0121072091
:1055B00000F01CFC2121072000F018FC232107200B
:1055C00000F014FC3321072000F010FC40F23311EE
:1055D000072000F00BFC0021A02000F007FCB4E045
:1055E0006048808844F235518842F8D13021152036
:1055F00000F0FCFB10219A2000F0F8FB2021112084
:1056000000F0F4FB43F22841102000F0EFFB0221F0
:10561000122000F0EBFB41F23801132000F0E6FB12
:10562000282000F0EFFD1221084600F0DFFB2820C3
:1056300000F0E8FD43F22041102000F0D7FB43F2D8
:105640003801132000F0D2FB462000F0DBFD0021E2
:10565000302000F0CBFB40F20241312000F0C6FBCD
:1056600040F20731322000F0C1FB4FF4417133208A
:1056700000F0BCFB0421342000F0B8FB40F20141F3
:10568000352000F0B3FB40F20771362000F0AEFB8E
:1056900040F20531372000F0A9FB4FF4C2613820F9
:1056A00000F0A4FB4FF4C261392000F09FFB4FF4DF
:1056B0008071012000F09AFB4FF44071022000F04D
:1056C00095FB41F23001032000F090FB40F6080109
:1056D000082000F08BFB08210A2000F087FB4FF424
:1056E0001C51602000F082FB0121612000F07EFB54
:1056F0004FF49F71902000F079FB4FF4807192205D
:1057000000F074FB4FF48071932000F06FFB4FF4B6
:105710004051A02000F06AFB1021A32000F066FB9E
:105720000121072000F062FB2121072000F05EFB31
:105730002321072000F05AFB3321072000F056FBFD
:1057400040F23311072000F051FB0120FCF74EFB23
:105750000120054908604FF6FF70FCF711FB1FB0F0
:1057600000BD0000A0000020808121420148008887
:10577000704700000008006C10B50446204600F099
:1057800025FB052000F064FDFFF7F0FF10BD0000D1
:1057900070B5044600230026AE48807901281ED14A
:1057A000AC48808846F60401884218D0082C15D2EF
:1057B000DFE804F00406080A0C0E101206240DE0BF
:1057C00007240BE0042409E0052407E0012405E098
:1057D000002403E0032401E0022400BF00BF9D4831
:1057E000808849F24131884211D09A48808846F633
:1057F000040188420BD09748808845F210318842D6
:1058000005D09448808845F2105188427ED1082CFA
:105810001CD2DFE804F00406090C0F12151800BFB3
:1058200014E043F0800311E043F040030EE043F046
:10583000C0030BE043F0200308E043F0600305E001
:1058400043F0A00302E043F0E00300BF00BF814843
:10585000808845F21051884202D14FF4585600E03A
:1058600036267C48808845F21031884207D0794836
:10587000808845F21051884201D043F008037548F2
:10588000808846F60401884201D143F0020319469C
:10589000304600F0ABFA03F0200018B96D4880796B
:1058A00001280DD16B4800886A494988884214DA7A
:1058B00068480588408867490880084645800CE0AC
:1058C0006448008863494988884206DD6148058844
:1058D000408860490880084645805E48808845F2D7
:1058E0001051884254D15B49488900F06FFA00207A
:1058F00000F066FA57494989491C88B200F066FAF7
:10590000002000F05DFA5349498900E06FE0891CEE
:1059100088B200F05BFA4F490988491EC1F30F2095
:1059200000F04EFA4B494989C91C88B200F04EFA82
:1059300048490978491EC8B200F042FA45498889A9
:1059400000F044FA002000F03BFA42498989491CE2
:1059500088B200F03BFA002000F032FA3D49898914
:10596000891C88B200F032FA3A494988491EC1F3CD
:105970000F2000F025FA37498989C91C88B200F048
:1059800025FA34498978491EC8B200F019FA60E056
:105990003049488900F01AFA002000F011FA00207E
:1059A00000F00EFA2B490988491EC1F30F2000F0C0
:1059B00007FA28490978491EC8B200F001FA2549BA
:1059C000888900F003FA002000F0FAF9002000F0C6
:1059D000F7F920494988491EC1F30F2000F0F0F97A
:1059E0001C498978491EC8B200F0EAF931E0082C58
:1059F0001CD2DFE804F004070A0D0F12151843F05B
:105A0000300313E043F0100310E043F020030DE0F7
:105A100000BF0BE043F0380308E043F0280305E043
:105A200043F0180302E043F0080300BF00BF094839
:105A3000808848F68911884204D1112646F2400038
:105A4000034302E0032643F480531946304600F036
:105A5000CDF970BDA000002010B503460C464048AB
:105A6000808849F24131884205D03D48808845F21E
:105A70001031884214D13A49488900F0A7F9181228
:105A800000F09EF9D8B200F09BF93549888900F002
:105A90009DF9201200F094F9E0B200F091F95DE078
:105AA0002F48808846F6040188421DD12C48807911
:105AB000012804D12A480088401EC01A83B2284910
:105AC000488900F083F9181200F07AF9D8B200F092
:105AD00077F92349888900F079F9201200F070F9EC
